{
  "contractName": "TheProductV2",
  "abi": [
    {
      "constant": true,
      "inputs": [
        {
          "name": "",
          "type": "uint256"
        }
      ],
      "name": "harvestLogIDs",
      "outputs": [
        {
          "name": "",
          "type": "string"
        }
      ],
      "payable": false,
      "stateMutability": "view",
      "type": "function"
    },
    {
      "constant": true,
      "inputs": [
        {
          "name": "",
          "type": "string"
        }
      ],
      "name": "harvestDetailMap",
      "outputs": [
        {
          "name": "harvestID",
          "type": "string"
        },
        {
          "name": "growingCondtions",
          "type": "string"
        },
        {
          "name": "harvestDescription",
          "type": "string"
        },
        {
          "name": "harvestTableName",
          "type": "string"
        },
        {
          "name": "harvestQuantity",
          "type": "string"
        },
        {
          "name": "harvestUser",
          "type": "string"
        },
        {
          "name": "BlockNumber",
          "type": "uint256"
        }
      ],
      "payable": false,
      "stateMutability": "view",
      "type": "function"
    },
    {
      "constant": true,
      "inputs": [
        {
          "name": "",
          "type": "string"
        }
      ],
      "name": "harvestAddressMap",
      "outputs": [
        {
          "name": "",
          "type": "address"
        }
      ],
      "payable": false,
      "stateMutability": "view",
      "type": "function"
    },
    {
      "constant": true,
      "inputs": [
        {
          "name": "",
          "type": "string"
        }
      ],
      "name": "storageMap",
      "outputs": [
        {
          "name": "storageID",
          "type": "string"
        },
        {
          "name": "harvestID",
          "type": "string"
        },
        {
          "name": "otherID",
          "type": "string"
        },
        {
          "name": "storageTimeStamp",
          "type": "string"
        },
        {
          "name": "storageDetail",
          "type": "string"
        },
        {
          "name": "BlockNumber",
          "type": "uint256"
        },
        {
          "name": "IsSet",
          "type": "uint256"
        }
      ],
      "payable": false,
      "stateMutability": "view",
      "type": "function"
    },
    {
      "constant": false,
      "inputs": [],
      "name": "renounceOwnership",
      "outputs": [],
      "payable": false,
      "stateMutability": "nonpayable",
      "type": "function"
    },
    {
      "constant": true,
      "inputs": [],
      "name": "owner",
      "outputs": [
        {
          "name": "",
          "type": "address"
        }
      ],
      "payable": false,
      "stateMutability": "view",
      "type": "function"
    },
    {
      "constant": true,
      "inputs": [],
      "name": "isOwner",
      "outputs": [
        {
          "name": "",
          "type": "bool"
        }
      ],
      "payable": false,
      "stateMutability": "view",
      "type": "function"
    },
    {
      "constant": true,
      "inputs": [
        {
          "name": "",
          "type": "string"
        }
      ],
      "name": "harvestMap",
      "outputs": [
        {
          "name": "harvestID",
          "type": "string"
        },
        {
          "name": "supplierproduceID",
          "type": "string"
        },
        {
          "name": "photoHash",
          "type": "string"
        },
        {
          "name": "geolocation",
          "type": "string"
        },
        {
          "name": "harvestTimeStamp",
          "type": "string"
        },
        {
          "name": "BlockNumber",
          "type": "uint256"
        },
        {
          "name": "IsSet",
          "type": "uint256"
        }
      ],
      "payable": false,
      "stateMutability": "view",
      "type": "function"
    },
    {
      "constant": true,
      "inputs": [
        {
          "name": "",
          "type": "string"
        }
      ],
      "name": "storageAddressMap",
      "outputs": [
        {
          "name": "",
          "type": "address"
        }
      ],
      "payable": false,
      "stateMutability": "view",
      "type": "function"
    },
    {
      "constant": false,
      "inputs": [
        {
          "name": "newOwner",
          "type": "address"
        }
      ],
      "name": "transferOwnership",
      "outputs": [],
      "payable": false,
      "stateMutability": "nonpayable",
      "type": "function"
    },
    {
      "constant": true,
      "inputs": [
        {
          "name": "",
          "type": "uint256"
        }
      ],
      "name": "storageLogIDs",
      "outputs": [
        {
          "name": "",
          "type": "string"
        }
      ],
      "payable": false,
      "stateMutability": "view",
      "type": "function"
    },
    {
      "inputs": [],
      "payable": false,
      "stateMutability": "nonpayable",
      "type": "constructor"
    },
    {
      "payable": false,
      "stateMutability": "nonpayable",
      "type": "fallback"
    },
    {
      "anonymous": false,
      "inputs": [
        {
          "indexed": false,
          "name": "_harvestLogIDIndex",
          "type": "uint256"
        },
        {
          "indexed": false,
          "name": "_harvestID",
          "type": "string"
        },
        {
          "indexed": false,
          "name": "_harvestSubmissionBlockNumber",
          "type": "uint256"
        }
      ],
      "name": "registeredHarvestEvent",
      "type": "event"
    },
    {
      "anonymous": false,
      "inputs": [
        {
          "indexed": false,
          "name": "_harvestID",
          "type": "string"
        },
        {
          "indexed": false,
          "name": "_harvestSubmissionBlockNumber",
          "type": "uint256"
        }
      ],
      "name": "registeredHarvestDetailEvent",
      "type": "event"
    },
    {
      "anonymous": false,
      "inputs": [
        {
          "indexed": false,
          "name": "_storageLogIDIndex",
          "type": "uint256"
        },
        {
          "indexed": false,
          "name": "_storageID",
          "type": "string"
        },
        {
          "indexed": false,
          "name": "_storageSubmissionBlockNumber",
          "type": "uint256"
        }
      ],
      "name": "registeredStorageEvent",
      "type": "event"
    },
    {
      "anonymous": false,
      "inputs": [
        {
          "indexed": true,
          "name": "previousOwner",
          "type": "address"
        },
        {
          "indexed": true,
          "name": "newOwner",
          "type": "address"
        }
      ],
      "name": "OwnershipTransferred",
      "type": "event"
    },
    {
      "constant": false,
      "inputs": [],
      "name": "toggleContractActive",
      "outputs": [
        {
          "name": "",
          "type": "bool"
        }
      ],
      "payable": false,
      "stateMutability": "nonpayable",
      "type": "function"
    },
    {
      "constant": false,
      "inputs": [
        {
          "name": "_supplierproduceID",
          "type": "string"
        },
        {
          "name": "_photoHash",
          "type": "string"
        },
        {
          "name": "_geolocation",
          "type": "string"
        },
        {
          "name": "_harvestTimeStamp",
          "type": "string"
        },
        {
          "name": "_harvestID",
          "type": "string"
        }
      ],
      "name": "registerHarvestSubmission",
      "outputs": [
        {
          "name": "",
          "type": "uint256"
        },
        {
          "name": "",
          "type": "uint256"
        }
      ],
      "payable": false,
      "stateMutability": "nonpayable",
      "type": "function"
    },
    {
      "constant": false,
      "inputs": [
        {
          "name": "_growingCondtions",
          "type": "string"
        },
        {
          "name": "_harvestDescription",
          "type": "string"
        },
        {
          "name": "_harvestTableName",
          "type": "string"
        },
        {
          "name": "_harvestQuantity",
          "type": "string"
        },
        {
          "name": "_harvestUser",
          "type": "string"
        },
        {
          "name": "_harvestID",
          "type": "string"
        }
      ],
      "name": "registerHarvestSubmissionDetails",
      "outputs": [
        {
          "name": "",
          "type": "uint256"
        }
      ],
      "payable": false,
      "stateMutability": "nonpayable",
      "type": "function"
    },
    {
      "constant": true,
      "inputs": [],
      "name": "getHarvestSubmissionsCount",
      "outputs": [
        {
          "name": "",
          "type": "uint256"
        }
      ],
      "payable": false,
      "stateMutability": "view",
      "type": "function"
    },
    {
      "constant": true,
      "inputs": [
        {
          "name": "harvest_id",
          "type": "string"
        }
      ],
      "name": "getHarvestSubmitterAddress",
      "outputs": [
        {
          "name": "",
          "type": "address"
        }
      ],
      "payable": false,
      "stateMutability": "view",
      "type": "function"
    },
    {
      "constant": true,
      "inputs": [
        {
          "name": "arrayIndex",
          "type": "uint256"
        }
      ],
      "name": "getHarvestLogIDByIndex",
      "outputs": [
        {
          "name": "",
          "type": "string"
        }
      ],
      "payable": false,
      "stateMutability": "view",
      "type": "function"
    },
    {
      "constant": true,
      "inputs": [
        {
          "name": "harvest_id",
          "type": "string"
        }
      ],
      "name": "getHarvestSubmission",
      "outputs": [
        {
          "name": "",
          "type": "string"
        },
        {
          "name": "",
          "type": "string"
        },
        {
          "name": "",
          "type": "string"
        },
        {
          "name": "",
          "type": "uint256"
        },
        {
          "name": "",
          "type": "uint256"
        }
      ],
      "payable": false,
      "stateMutability": "view",
      "type": "function"
    },
    {
      "constant": true,
      "inputs": [
        {
          "name": "harvest_id",
          "type": "string"
        }
      ],
      "name": "getHarvestSubmissionDetail",
      "outputs": [
        {
          "name": "",
          "type": "string"
        },
        {
          "name": "",
          "type": "string"
        },
        {
          "name": "",
          "type": "string"
        },
        {
          "name": "",
          "type": "string"
        },
        {
          "name": "",
          "type": "string"
        },
        {
          "name": "",
          "type": "string"
        },
        {
          "name": "",
          "type": "uint256"
        }
      ],
      "payable": false,
      "stateMutability": "view",
      "type": "function"
    },
    {
      "constant": true,
      "inputs": [
        {
          "name": "harvest_id",
          "type": "string"
        }
      ],
      "name": "checkHarvestSubmission",
      "outputs": [
        {
          "name": "",
          "type": "bool"
        }
      ],
      "payable": false,
      "stateMutability": "view",
      "type": "function"
    },
    {
      "constant": false,
      "inputs": [
        {
          "name": "_otherID",
          "type": "string"
        },
        {
          "name": "_storageTimeStamp",
          "type": "string"
        },
        {
          "name": "_storageDetail",
          "type": "string"
        },
        {
          "name": "_storageID",
          "type": "string"
        },
        {
          "name": "_harvestID",
          "type": "string"
        }
      ],
      "name": "registerStorageSubmission",
      "outputs": [
        {
          "name": "",
          "type": "uint256"
        },
        {
          "name": "",
          "type": "uint256"
        }
      ],
      "payable": false,
      "stateMutability": "nonpayable",
      "type": "function"
    },
    {
      "constant": true,
      "inputs": [],
      "name": "getStorageSubmissionsCount",
      "outputs": [
        {
          "name": "",
          "type": "uint256"
        }
      ],
      "payable": false,
      "stateMutability": "view",
      "type": "function"
    },
    {
      "constant": true,
      "inputs": [
        {
          "name": "storage_id",
          "type": "string"
        }
      ],
      "name": "getStorageSubmitterAddress",
      "outputs": [
        {
          "name": "",
          "type": "address"
        }
      ],
      "payable": false,
      "stateMutability": "view",
      "type": "function"
    },
    {
      "constant": true,
      "inputs": [
        {
          "name": "arrayIndex",
          "type": "uint256"
        }
      ],
      "name": "getStorageLogIDByIndex",
      "outputs": [
        {
          "name": "",
          "type": "string"
        }
      ],
      "payable": false,
      "stateMutability": "view",
      "type": "function"
    },
    {
      "constant": true,
      "inputs": [
        {
          "name": "storage_id",
          "type": "string"
        }
      ],
      "name": "getStorageSubmission",
      "outputs": [
        {
          "name": "",
          "type": "string"
        },
        {
          "name": "",
          "type": "string"
        },
        {
          "name": "",
          "type": "string"
        },
        {
          "name": "",
          "type": "string"
        },
        {
          "name": "",
          "type": "uint256"
        },
        {
          "name": "",
          "type": "uint256"
        }
      ],
      "payable": false,
      "stateMutability": "view",
      "type": "function"
    },
    {
      "constant": true,
      "inputs": [
        {
          "name": "storage_id",
          "type": "string"
        }
      ],
      "name": "checkStorageSubmission",
      "outputs": [
        {
          "name": "",
          "type": "bool"
        }
      ],
      "payable": false,
      "stateMutability": "view",
      "type": "function"
    },
    {
      "constant": true,
      "inputs": [],
      "name": "checkContractIsRunning",
      "outputs": [
        {
          "name": "",
          "type": "bool"
        }
      ],
      "payable": false,
      "stateMutability": "view",
      "type": "function"
    },
    {
      "constant": false,
      "inputs": [],
      "name": "destroy",
      "outputs": [],
      "payable": false,
      "stateMutability": "nonpayable",
      "type": "function"
    }
  ],
  "bytecode": "0x60806040523480156200001157600080fd5b506000620000246200012460201b60201c565b9050806000806101000a81548173ffffffffffffffffffffffffffffffffffffffff021916908373ffffffffffffffffffffffffffffffffffffffff1602179055508073ffffffffffffffffffffffffffffffffffffffff16600073ffffffffffffffffffffffffffffffffffffffff167f8be0079c531659141344cd1fd0a4f28419497f9722a3daafe3b4186f6b6457e060405160405180910390a35033600160006101000a81548173ffffffffffffffffffffffffffffffffffffffff021916908373ffffffffffffffffffffffffffffffffffffffff1602179055506000600160146101000a81548160ff0219169083151502179055506200012c565b600033905090565b615b58806200013c6000396000f3fe608060405234801561001057600080fd5b50600436106101c45760003560e01c806380c03b94116100f9578063a81fe6ba11610097578063e795cd7b11610071578063e795cd7b14611f79578063f2fde38b14611f97578063f6e191f514611fdb578063f8ce4bd814612082576101c4565b8063a81fe6ba14611b6a578063d75e7b0114611b8c578063d7f5ed7214611e7e576101c4565b80638f32d59b116100d35780638f32d59b146118005780639d5a3d74146118225780639ecf8a34146118db578063a247892b14611ac3576101c4565b806380c03b941461149757806383197ef0146117ac5780638da5cb5b146117b6576101c4565b80633315a5981161016657806350be1ab01161014057806350be1ab014610ec857806368dfeda914610fc35780636b7524a3146112b5578063715018a61461148d576101c4565b80633315a598146108685780633f7ec8b714610bbf57806342f13b0814610c92576101c4565b80631385d24c116101a25780631385d24c1461059957806313a3d5b1146105bb5780631fef6f98146107a3578063294ceec5146107c1576101c4565b806301e86827146101c95780630804e3ee146102825780630c2b261a146104c6575b600080fd5b610240600480360360208110156101df57600080fd5b81019080803590602001906401000000008111156101fc57600080fd5b82018360208201111561020e57600080fd5b8035906020019184600183028401116401000000008311171561023057600080fd5b9091929391929390505050612129565b604051808273ffffffffffffffffffffffffffffffffffffffff1673ffffffffffffffffffffffffffffffffffffffff16815260200191505060405180910390f35b6102f96004803603602081101561029857600080fd5b81019080803590602001906401000000008111156102b557600080fd5b8201836020820111156102c757600080fd5b803590602001918460018302840111640100000000831117156102e957600080fd5b909192939192939050505061225b565b604051808060200180602001806020018060200187815260200186815260200185810385528b818151815260200191508051906020019080838360005b83811015610351578082015181840152602081019050610336565b50505050905090810190601f16801561037e5780820380516001836020036101000a031916815260200191505b5085810384528a818151815260200191508051906020019080838360005b838110156103b757808201518184015260208101905061039c565b50505050905090810190601f1680156103e45780820380516001836020036101000a031916815260200191505b50858103835289818151815260200191508051906020019080838360005b8381101561041d578082015181840152602081019050610402565b50505050905090810190601f16801561044a5780820380516001836020036101000a031916815260200191505b50858103825288818151815260200191508051906020019080838360005b83811015610483578082015181840152602081019050610468565b50505050905090810190601f1680156104b05780820380516001836020036101000a031916815260200191505b509a505050505050505050505060405180910390f35b61057f600480360360208110156104dc57600080fd5b81019080803590602001906401000000008111156104f957600080fd5b82018360208201111561050b57600080fd5b8035906020019184600183028401116401000000008311171561052d57600080fd5b91908080601f016020809104026020016040519081016040528093929190818152602001838380828437600081840152601f19601f820116905080830192505050505050509192919290505050612685565b604051808215151515815260200191505060405180910390f35b6105a161277c565b604051808215151515815260200191505060405180910390f35b610786600480360360a08110156105d157600080fd5b81019080803590602001906401000000008111156105ee57600080fd5b82018360208201111561060057600080fd5b8035906020019184600183028401116401000000008311171561062257600080fd5b90919293919293908035906020019064010000000081111561064357600080fd5b82018360208201111561065557600080fd5b8035906020019184600183028401116401000000008311171561067757600080fd5b90919293919293908035906020019064010000000081111561069857600080fd5b8201836020820111156106aa57600080fd5b803590602001918460018302840111640100000000831117156106cc57600080fd5b9091929391929390803590602001906401000000008111156106ed57600080fd5b8201836020820111156106ff57600080fd5b8035906020019184600183028401116401000000008311171561072157600080fd5b90919293919293908035906020019064010000000081111561074257600080fd5b82018360208201111561075457600080fd5b8035906020019184600183028401116401000000008311171561077657600080fd5b9091929391929390505050612837565b604051808381526020018281526020019250505060405180910390f35b6107ab612d61565b6040518082815260200191505060405180910390f35b6107ed600480360360208110156107d757600080fd5b8101908080359060200190929190505050612e4e565b6040518080602001828103825283818151815260200191508051906020019080838360005b8381101561082d578082015181840152602081019050610812565b50505050905090810190601f16801561085a5780820380516001836020036101000a031916815260200191505b509250505060405180910390f35b6109216004803603602081101561087e57600080fd5b810190808035906020019064010000000081111561089b57600080fd5b8201836020820111156108ad57600080fd5b803590602001918460018302840111640100000000831117156108cf57600080fd5b91908080601f016020809104026020016040519081016040528093929190818152602001838380828437600081840152601f19601f820116905080830192505050505050509192919290505050612f07565b6040518080602001806020018060200180602001806020018060200188815260200187810387528e818151815260200191508051906020019080838360005b8381101561097b578082015181840152602081019050610960565b50505050905090810190601f1680156109a85780820380516001836020036101000a031916815260200191505b5087810386528d818151815260200191508051906020019080838360005b838110156109e15780820151818401526020810190506109c6565b50505050905090810190601f168015610a0e5780820380516001836020036101000a031916815260200191505b5087810385528c818151815260200191508051906020019080838360005b83811015610a47578082015181840152602081019050610a2c565b50505050905090810190601f168015610a745780820380516001836020036101000a031916815260200191505b5087810384528b818151815260200191508051906020019080838360005b83811015610aad578082015181840152602081019050610a92565b50505050905090810190601f168015610ada5780820380516001836020036101000a031916815260200191505b5087810383528a818151815260200191508051906020019080838360005b83811015610b13578082015181840152602081019050610af8565b50505050905090810190601f168015610b405780820380516001836020036101000a031916815260200191505b50878103825289818151815260200191508051906020019080838360005b83811015610b79578082015181840152602081019050610b5e565b50505050905090810190601f168015610ba65780820380516001836020036101000a031916815260200191505b509d505050505050505050505050505060405180910390f35b610c7860048036036020811015610bd557600080fd5b8101908080359060200190640100000000811115610bf257600080fd5b820183602082011115610c0457600080fd5b80359060200191846001830284011164010000000083111715610c2657600080fd5b91908080601f016020809104026020016040519081016040528093929190818152602001838380828437600081840152601f19601f8201169050808301925050505050505091929192905050506132ef565b604051808215151515815260200191505060405180910390f35b610eb2600480360360c0811015610ca857600080fd5b8101908080359060200190640100000000811115610cc557600080fd5b820183602082011115610cd757600080fd5b80359060200191846001830284011164010000000083111715610cf957600080fd5b909192939192939080359060200190640100000000811115610d1a57600080fd5b820183602082011115610d2c57600080fd5b80359060200191846001830284011164010000000083111715610d4e57600080fd5b909192939192939080359060200190640100000000811115610d6f57600080fd5b820183602082011115610d8157600080fd5b80359060200191846001830284011164010000000083111715610da357600080fd5b909192939192939080359060200190640100000000811115610dc457600080fd5b820183602082011115610dd657600080fd5b80359060200191846001830284011164010000000083111715610df857600080fd5b909192939192939080359060200190640100000000811115610e1957600080fd5b820183602082011115610e2b57600080fd5b80359060200191846001830284011164010000000083111715610e4d57600080fd5b909192939192939080359060200190640100000000811115610e6e57600080fd5b820183602082011115610e8057600080fd5b80359060200191846001830284011164010000000083111715610ea257600080fd5b90919293919293905050506133e6565b6040518082815260200191505060405180910390f35b610f8160048036036020811015610ede57600080fd5b8101908080359060200190640100000000811115610efb57600080fd5b820183602082011115610f0d57600080fd5b80359060200191846001830284011164010000000083111715610f2f57600080fd5b91908080601f016020809104026020016040519081016040528093929190818152602001838380828437600081840152601f19601f82011690508083019250505050505050919291929050505061377f565b604051808273ffffffffffffffffffffffffffffffffffffffff1673ffffffffffffffffffffffffffffffffffffffff16815260200191505060405180910390f35b61107c60048036036020811015610fd957600080fd5b8101908080359060200190640100000000811115610ff657600080fd5b82018360208201111561100857600080fd5b8035906020019184600183028401116401000000008311171561102a57600080fd5b91908080601f016020809104026020016040519081016040528093929190818152602001838380828437600081840152601f19601f8201169050808301925050505050505091929192905050506137c8565b60405180806020018060200180602001806020018060200188815260200187815260200186810386528d818151815260200191508051906020019080838360005b838110156110d85780820151818401526020810190506110bd565b50505050905090810190601f1680156111055780820380516001836020036101000a031916815260200191505b5086810385528c818151815260200191508051906020019080838360005b8381101561113e578082015181840152602081019050611123565b50505050905090810190601f16801561116b5780820380516001836020036101000a031916815260200191505b5086810384528b818151815260200191508051906020019080838360005b838110156111a4578082015181840152602081019050611189565b50505050905090810190601f1680156111d15780820380516001836020036101000a031916815260200191505b5086810383528a818151815260200191508051906020019080838360005b8381101561120a5780820151818401526020810190506111ef565b50505050905090810190601f1680156112375780820380516001836020036101000a031916815260200191505b50868103825289818151815260200191508051906020019080838360005b83811015611270578082015181840152602081019050611255565b50505050905090810190601f16801561129d5780820380516001836020036101000a031916815260200191505b509c5050505050505050505050505060405180910390f35b61132c600480360360208110156112cb57600080fd5b81019080803590602001906401000000008111156112e857600080fd5b8201836020820111156112fa57600080fd5b8035906020019184600183028401116401000000008311171561131c57600080fd5b9091929391929390505050613b18565b60405180806020018060200180602001868152602001858152602001848103845289818151815260200191508051906020019080838360005b83811015611380578082015181840152602081019050611365565b50505050905090810190601f1680156113ad5780820380516001836020036101000a031916815260200191505b50848103835288818151815260200191508051906020019080838360005b838110156113e65780820151818401526020810190506113cb565b50505050905090810190601f1680156114135780820380516001836020036101000a031916815260200191505b50848103825287818151815260200191508051906020019080838360005b8381101561144c578082015181840152602081019050611431565b50505050905090810190601f1680156114795780820380516001836020036101000a031916815260200191505b509850505050505050505060405180910390f35b611495613f7e565b005b61150e600480360360208110156114ad57600080fd5b81019080803590602001906401000000008111156114ca57600080fd5b8201836020820111156114dc57600080fd5b803590602001918460018302840111640100000000831117156114fe57600080fd5b90919293919293905050506140b7565b6040518080602001806020018060200180602001806020018060200188815260200187810387528e818151815260200191508051906020019080838360005b8381101561156857808201518184015260208101905061154d565b50505050905090810190601f1680156115955780820380516001836020036101000a031916815260200191505b5087810386528d818151815260200191508051906020019080838360005b838110156115ce5780820151818401526020810190506115b3565b50505050905090810190601f1680156115fb5780820380516001836020036101000a031916815260200191505b5087810385528c818151815260200191508051906020019080838360005b83811015611634578082015181840152602081019050611619565b50505050905090810190601f1680156116615780820380516001836020036101000a031916815260200191505b5087810384528b818151815260200191508051906020019080838360005b8381101561169a57808201518184015260208101905061167f565b50505050905090810190601f1680156116c75780820380516001836020036101000a031916815260200191505b5087810383528a818151815260200191508051906020019080838360005b838110156117005780820151818401526020810190506116e5565b50505050905090810190601f16801561172d5780820380516001836020036101000a031916815260200191505b50878103825289818151815260200191508051906020019080838360005b8381101561176657808201518184015260208101905061174b565b50505050905090810190601f1680156117935780820380516001836020036101000a031916815260200191505b509d505050505050505050505050505060405180910390f35b6117b46145d3565b005b6117be6146ed565b604051808273ffffffffffffffffffffffffffffffffffffffff1673ffffffffffffffffffffffffffffffffffffffff16815260200191505060405180910390f35b611808614716565b604051808215151515815260200191505060405180910390f35b6118996004803603602081101561183857600080fd5b810190808035906020019064010000000081111561185557600080fd5b82018360208201111561186757600080fd5b8035906020019184600183028401116401000000008311171561188957600080fd5b9091929391929390505050614774565b604051808273ffffffffffffffffffffffffffffffffffffffff1673ffffffffffffffffffffffffffffffffffffffff16815260200191505060405180910390f35b611aa6600480360360a08110156118f157600080fd5b810190808035906020019064010000000081111561190e57600080fd5b82018360208201111561192057600080fd5b8035906020019184600183028401116401000000008311171561194257600080fd5b90919293919293908035906020019064010000000081111561196357600080fd5b82018360208201111561197557600080fd5b8035906020019184600183028401116401000000008311171561199757600080fd5b9091929391929390803590602001906401000000008111156119b857600080fd5b8201836020820111156119ca57600080fd5b803590602001918460018302840111640100000000831117156119ec57600080fd5b909192939192939080359060200190640100000000811115611a0d57600080fd5b820183602082011115611a1f57600080fd5b80359060200191846001830284011164010000000083111715611a4157600080fd5b909192939192939080359060200190640100000000811115611a6257600080fd5b820183602082011115611a7457600080fd5b80359060200191846001830284011164010000000083111715611a9657600080fd5b90919293919293905050506148a6565b604051808381526020018281526020019250505060405180910390f35b611aef60048036036020811015611ad957600080fd5b8101908080359060200190929190505050614dd0565b6040518080602001828103825283818151815260200191508051906020019080838360005b83811015611b2f578082015181840152602081019050611b14565b50505050905090810190601f168015611b5c5780820380516001836020036101000a031916815260200191505b509250505060405180910390f35b611b72614eef565b604051808215151515815260200191505060405180910390f35b611c4560048036036020811015611ba257600080fd5b8101908080359060200190640100000000811115611bbf57600080fd5b820183602082011115611bd157600080fd5b80359060200191846001830284011164010000000083111715611bf357600080fd5b91908080601f016020809104026020016040519081016040528093929190818152602001838380828437600081840152601f19601f820116905080830192505050505050509192919290505050614f06565b60405180806020018060200180602001806020018060200188815260200187815260200186810386528d818151815260200191508051906020019080838360005b83811015611ca1578082015181840152602081019050611c86565b50505050905090810190601f168015611cce5780820380516001836020036101000a031916815260200191505b5086810385528c818151815260200191508051906020019080838360005b83811015611d07578082015181840152602081019050611cec565b50505050905090810190601f168015611d345780820380516001836020036101000a031916815260200191505b5086810384528b818151815260200191508051906020019080838360005b83811015611d6d578082015181840152602081019050611d52565b50505050905090810190601f168015611d9a5780820380516001836020036101000a031916815260200191505b5086810383528a818151815260200191508051906020019080838360005b83811015611dd3578082015181840152602081019050611db8565b50505050905090810190601f168015611e005780820380516001836020036101000a031916815260200191505b50868103825289818151815260200191508051906020019080838360005b83811015611e39578082015181840152602081019050611e1e565b50505050905090810190601f168015611e665780820380516001836020036101000a031916815260200191505b509c5050505050505050505050505060405180910390f35b611f3760048036036020811015611e9457600080fd5b8101908080359060200190640100000000811115611eb157600080fd5b820183602082011115611ec357600080fd5b80359060200191846001830284011164010000000083111715611ee557600080fd5b91908080601f016020809104026020016040519081016040528093929190818152602001838380828437600081840152601f19601f820116905080830192505050505050509192919290505050615256565b604051808273ffffffffffffffffffffffffffffffffffffffff1673ffffffffffffffffffffffffffffffffffffffff16815260200191505060405180910390f35b611f8161529f565b6040518082815260200191505060405180910390f35b611fd960048036036020811015611fad57600080fd5b81019080803573ffffffffffffffffffffffffffffffffffffffff16906020019092919050505061538c565b005b61200760048036036020811015611ff157600080fd5b8101908080359060200190929190505050615412565b6040518080602001828103825283818151815260200191508051906020019080838360005b8381101561204757808201518184015260208101905061202c565b50505050905090810190601f1680156120745780820380516001836020036101000a031916815260200191505b509250505060405180910390f35b6120ae6004803603602081101561209857600080fd5b8101908080359060200190929190505050615531565b6040518080602001828103825283818151815260200191508051906020019080838360005b838110156120ee5780820151818401526020810190506120d3565b50505050905090810190601f16801561211b5780820380516001836020036101000a031916815260200191505b509250505060405180910390f35b6000612133614716565b6121a5576040517f08c379a00000000000000000000000000000000000000000000000000000000081526004018080602001828103825260208152602001807f4f776e61626c653a2063616c6c6572206973206e6f7420746865206f776e657281525060200191505060405180910390fd5b600160149054906101000a900460ff161561220b576040517f08c379a0000000000000000000000000000000000000000000000000000000008152600401808060200182810382526039815260200180615a7d6039913960400191505060405180910390fd5b60048383604051808383808284378083019250505092505050908152602001604051809103902060009054906101000a900473ffffffffffffffffffffffffffffffffffffffff16905092915050565b606080606080600080600160149054906101000a900460ff16156122ca576040517f08c379a0000000000000000000000000000000000000000000000000000000008152600401808060200182810382526039815260200180615a7d6039913960400191505060405180910390fd5b6122d2615840565b6006898960405180838380828437808301925050509250505090815260200160405180910390206040518060e0016040529081600082018054600181600116156101000203166002900480601f01602080910402602001604051908101604052809291908181526020018280546001816001161561010002031660029004801561239d5780601f106123725761010080835404028352916020019161239d565b820191906000526020600020905b81548152906001019060200180831161238057829003601f168201915b50505050508152602001600182018054600181600116156101000203166002900480601f01602080910402602001604051908101604052809291908181526020018280546001816001161561010002031660029004801561243f5780601f106124145761010080835404028352916020019161243f565b820191906000526020600020905b81548152906001019060200180831161242257829003601f168201915b50505050508152602001600282018054600181600116156101000203166002900480601f0160208091040260200160405190810160405280929190818152602001828054600181600116156101000203166002900480156124e15780601f106124b6576101008083540402835291602001916124e1565b820191906000526020600020905b8154815290600101906020018083116124c457829003601f168201915b50505050508152602001600382018054600181600116156101000203166002900480601f0160208091040260200160405190810160405280929190818152602001828054600181600116156101000203166002900480156125835780601f1061255857610100808354040283529160200191612583565b820191906000526020600020905b81548152906001019060200180831161256657829003601f168201915b50505050508152602001600482018054600181600116156101000203166002900480601f0160208091040260200160405190810160405280929190818152602001828054600181600116156101000203166002900480156126255780601f106125fa57610100808354040283529160200191612625565b820191906000526020600020905b81548152906001019060200180831161260857829003601f168201915b5050505050815260200160058201548152602001600682015481525050905080600001518160200151826040015183608001518460a001518560c00151859550849450839350829250965096509650965096509650509295509295509295565b6000600160149054906101000a900460ff16156126ed576040517f08c379a0000000000000000000000000000000000000000000000000000000008152600401808060200182810382526039815260200180615a7d6039913960400191505060405180910390fd5b60006002836040518082805190602001908083835b602083106127255780518252602082019150602081019050602083039250612702565b6001836020036101000a03801982511681845116808217855250505050505090500191505090815260200160405180910390206006015490506000811115612771576001915050612777565b60009150505b919050565b6000612786614716565b6127f8576040517f08c379a00000000000000000000000000000000000000000000000000000000081526004018080602001828103825260208152602001807f4f776e61626c653a2063616c6c6572206973206e6f7420746865206f776e657281525060200191505060405180910390fd5b600160149054906101000a900460ff1615600160146101000a81548160ff021916908315150217905550600160149054906101000a900460ff16905090565b600080600160149054906101000a900460ff16156128a0576040517f08c379a0000000000000000000000000000000000000000000000000000000008152600401808060200182810382526039815260200180615a7d6039913960400191505060405180910390fd5b600015153073ffffffffffffffffffffffffffffffffffffffff16630c2b261a86866040518363ffffffff1660e01b815260040180806020018281038252848482818152602001925080828437600081840152601f19601f820116905080830192505050935050505060206040518083038186803b15801561292157600080fd5b505afa158015612935573d6000803e3d6000fd5b505050506040513d602081101561294b57600080fd5b81019080805190602001909291905050501515146129b4576040517f08c379a000000000000000000000000000000000000000000000000000000000815260040180806020018281038252603a815260200180615ab6603a913960400191505060405180910390fd5b60004390506000600190506040518060e0016040528087878080601f016020809104026020016040519081016040528093929190818152602001838380828437600081840152601f19601f8201169050808301925050505050505081526020018f8f8080601f016020809104026020016040519081016040528093929190818152602001838380828437600081840152601f19601f8201169050808301925050505050505081526020018d8d8080601f016020809104026020016040519081016040528093929190818152602001838380828437600081840152601f19601f8201169050808301925050505050505081526020018b8b8080601f016020809104026020016040519081016040528093929190818152602001838380828437600081840152601f19601f82011690508083019250505050505050815260200189898080601f016020809104026020016040519081016040528093929190818152602001838380828437600081840152601f19601f820116905080830192505050505050508152602001838152602001828152506002878760405180838380828437808301925050509250505090815260200160405180910390206000820151816000019080519060200190612b8992919061587d565b506020820151816001019080519060200190612ba692919061587d565b506040820151816002019080519060200190612bc392919061587d565b506060820151816003019080519060200190612be092919061587d565b506080820151816004019080519060200190612bfd92919061587d565b5060a0820151816005015560c082015181600601559050503360048787604051808383808284378083019250505092505050908152602001604051809103902060006101000a81548173ffffffffffffffffffffffffffffffffffffffff021916908373ffffffffffffffffffffffffffffffffffffffff16021790555060006005878790918060018154018082558091505090600182039060005260206000200160009091929390919293909192909192509190612cbd9291906158fd565b509050612cd46001826155ea90919063ffffffff16565b90507f325c0d89c3df5f13876e7c870d70f12bcb1082f72e027d0de5f7d53b516d3f278188888660405180858152602001806020018381526020018281038252858582818152602001925080828437600081840152601f19601f8201169050808301925050509550505050505060405180910390a18083945094505050509a509a98505050505050505050565b6000612d6b614716565b612ddd576040517f08c379a00000000000000000000000000000000000000000000000000000000081526004018080602001828103825260208152602001807f4f776e61626c653a2063616c6c6572206973206e6f7420746865206f776e657281525060200191505060405180910390fd5b600160149054906101000a900460ff1615612e43576040517f08c379a0000000000000000000000000000000000000000000000000000000008152600401808060200182810382526039815260200180615a7d6039913960400191505060405180910390fd5b600880549050905090565b60058181548110612e5b57fe5b906000526020600020016000915090508054600181600116156101000203166002900480601f016020809104026020016040519081016040528092919081815260200182805460018160011615610100020316600290048015612eff5780601f10612ed457610100808354040283529160200191612eff565b820191906000526020600020905b815481529060010190602001808311612ee257829003601f168201915b505050505081565b600381805160208101820180518482526020830160208501208183528095505050505050600091509050806000018054600181600116156101000203166002900480601f016020809104026020016040519081016040528092919081815260200182805460018160011615610100020316600290048015612fc95780601f10612f9e57610100808354040283529160200191612fc9565b820191906000526020600020905b815481529060010190602001808311612fac57829003601f168201915b505050505090806001018054600181600116156101000203166002900480601f0160208091040260200160405190810160405280929190818152602001828054600181600116156101000203166002900480156130675780601f1061303c57610100808354040283529160200191613067565b820191906000526020600020905b81548152906001019060200180831161304a57829003601f168201915b505050505090806002018054600181600116156101000203166002900480601f0160208091040260200160405190810160405280929190818152602001828054600181600116156101000203166002900480156131055780601f106130da57610100808354040283529160200191613105565b820191906000526020600020905b8154815290600101906020018083116130e857829003601f168201915b505050505090806003018054600181600116156101000203166002900480601f0160208091040260200160405190810160405280929190818152602001828054600181600116156101000203166002900480156131a35780601f10613178576101008083540402835291602001916131a3565b820191906000526020600020905b81548152906001019060200180831161318657829003601f168201915b505050505090806004018054600181600116156101000203166002900480601f0160208091040260200160405190810160405280929190818152602001828054600181600116156101000203166002900480156132415780601f1061321657610100808354040283529160200191613241565b820191906000526020600020905b81548152906001019060200180831161322457829003601f168201915b505050505090806005018054600181600116156101000203166002900480601f0160208091040260200160405190810160405280929190818152602001828054600181600116156101000203166002900480156132df5780601f106132b4576101008083540402835291602001916132df565b820191906000526020600020905b8154815290600101906020018083116132c257829003601f168201915b5050505050908060060154905087565b6000600160149054906101000a900460ff1615613357576040517f08c379a0000000000000000000000000000000000000000000000000000000008152600401808060200182810382526039815260200180615a7d6039913960400191505060405180910390fd5b60006006836040518082805190602001908083835b6020831061338f578051825260208201915060208101905060208303925061336c565b6001836020036101000a038019825116818451168082178552505050505050905001915050908152602001604051809103902060060154905060008111156133db5760019150506133e1565b60009150505b919050565b6000600160149054906101000a900460ff161561344e576040517f08c379a0000000000000000000000000000000000000000000000000000000008152600401808060200182810382526039815260200180615a7d6039913960400191505060405180910390fd5b60004390506040518060e0016040528085858080601f016020809104026020016040519081016040528093929190818152602001838380828437600081840152601f19601f8201169050808301925050505050505081526020018f8f8080601f016020809104026020016040519081016040528093929190818152602001838380828437600081840152601f19601f8201169050808301925050505050505081526020018d8d8080601f016020809104026020016040519081016040528093929190818152602001838380828437600081840152601f19601f8201169050808301925050505050505081526020018b8b8080601f016020809104026020016040519081016040528093929190818152602001838380828437600081840152601f19601f82011690508083019250505050505050815260200189898080601f016020809104026020016040519081016040528093929190818152602001838380828437600081840152601f19601f82011690508083019250505050505050815260200187878080601f016020809104026020016040519081016040528093929190818152602001838380828437600081840152601f19601f82011690508083019250505050505050815260200182815250600385856040518083838082843780830192505050925050509081526020016040518091039020600082015181600001908051906020019061366192919061587d565b50602082015181600101908051906020019061367e92919061587d565b50604082015181600201908051906020019061369b92919061587d565b5060608201518160030190805190602001906136b892919061587d565b5060808201518160040190805190602001906136d592919061587d565b5060a08201518160050190805190602001906136f292919061587d565b5060c082015181600601559050507f0301873718dd60103e301f15ce17de31a3f7054be8f654cf9007a12b1a9ab54584848360405180806020018381526020018281038252858582818152602001925080828437600081840152601f19601f82011690508083019250505094505050505060405180910390a1809150509c9b505050505050505050505050565b6004818051602081018201805184825260208301602085012081835280955050505050506000915054906101000a900473ffffffffffffffffffffffffffffffffffffffff1681565b600681805160208101820180518482526020830160208501208183528095505050505050600091509050806000018054600181600116156101000203166002900480601f01602080910402602001604051908101604052809291908181526020018280546001816001161561010002031660029004801561388a5780601f1061385f5761010080835404028352916020019161388a565b820191906000526020600020905b81548152906001019060200180831161386d57829003601f168201915b505050505090806001018054600181600116156101000203166002900480601f0160208091040260200160405190810160405280929190818152602001828054600181600116156101000203166002900480156139285780601f106138fd57610100808354040283529160200191613928565b820191906000526020600020905b81548152906001019060200180831161390b57829003601f168201915b505050505090806002018054600181600116156101000203166002900480601f0160208091040260200160405190810160405280929190818152602001828054600181600116156101000203166002900480156139c65780601f1061399b576101008083540402835291602001916139c6565b820191906000526020600020905b8154815290600101906020018083116139a957829003601f168201915b505050505090806003018054600181600116156101000203166002900480601f016020809104026020016040519081016040528092919081815260200182805460018160011615610100020316600290048015613a645780601f10613a3957610100808354040283529160200191613a64565b820191906000526020600020905b815481529060010190602001808311613a4757829003601f168201915b505050505090806004018054600181600116156101000203166002900480601f016020809104026020016040519081016040528092919081815260200182805460018160011615610100020316600290048015613b025780601f10613ad757610100808354040283529160200191613b02565b820191906000526020600020905b815481529060010190602001808311613ae557829003601f168201915b5050505050908060050154908060060154905087565b6060806060600080600160149054906101000a900460ff1615613b86576040517f08c379a0000000000000000000000000000000000000000000000000000000008152600401808060200182810382526039815260200180615a7d6039913960400191505060405180910390fd5b613b8e61597d565b6002888860405180838380828437808301925050509250505090815260200160405180910390206040518060e0016040529081600082018054600181600116156101000203166002900480601f016020809104026020016040519081016040528092919081815260200182805460018160011615610100020316600290048015613c595780601f10613c2e57610100808354040283529160200191613c59565b820191906000526020600020905b815481529060010190602001808311613c3c57829003601f168201915b50505050508152602001600182018054600181600116156101000203166002900480601f016020809104026020016040519081016040528092919081815260200182805460018160011615610100020316600290048015613cfb5780601f10613cd057610100808354040283529160200191613cfb565b820191906000526020600020905b815481529060010190602001808311613cde57829003601f168201915b50505050508152602001600282018054600181600116156101000203166002900480601f016020809104026020016040519081016040528092919081815260200182805460018160011615610100020316600290048015613d9d5780601f10613d7257610100808354040283529160200191613d9d565b820191906000526020600020905b815481529060010190602001808311613d8057829003601f168201915b50505050508152602001600382018054600181600116156101000203166002900480601f016020809104026020016040519081016040528092919081815260200182805460018160011615610100020316600290048015613e3f5780601f10613e1457610100808354040283529160200191613e3f565b820191906000526020600020905b815481529060010190602001808311613e2257829003601f168201915b50505050508152602001600482018054600181600116156101000203166002900480601f016020809104026020016040519081016040528092919081815260200182805460018160011615610100020316600290048015613ee15780601f10613eb657610100808354040283529160200191613ee1565b820191906000526020600020905b815481529060010190602001808311613ec457829003601f168201915b505050505081526020016005820154815260200160068201548152505090508787826020015183608001518460a001518560c0015185858080601f016020809104026020016040519081016040528093929190818152602001838380828437600081840152601f19601f82011690508083019250505050505050945090919293945083935082925095509550955095509550509295509295909350565b613f86614716565b613ff8576040517f08c379a00000000000000000000000000000000000000000000000000000000081526004018080602001828103825260208152602001807f4f776e61626c653a2063616c6c6572206973206e6f7420746865206f776e657281525060200191505060405180910390fd5b600073ffffffffffffffffffffffffffffffffffffffff166000809054906101000a900473ffffffffffffffffffffffffffffffffffffffff1673ffffffffffffffffffffffffffffffffffffffff167f8be0079c531659141344cd1fd0a4f28419497f9722a3daafe3b4186f6b6457e060405160405180910390a360008060006101000a81548173ffffffffffffffffffffffffffffffffffffffff021916908373ffffffffffffffffffffffffffffffffffffffff160217905550565b6060806060806060806000600160149054906101000a900460ff1615614128576040517f08c379a0000000000000000000000000000000000000000000000000000000008152600401808060200182810382526039815260200180615a7d6039913960400191505060405180910390fd5b6141306159ba565b60038a8a60405180838380828437808301925050509250505090815260200160405180910390206040518060e0016040529081600082018054600181600116156101000203166002900480601f0160208091040260200160405190810160405280929190818152602001828054600181600116156101000203166002900480156141fb5780601f106141d0576101008083540402835291602001916141fb565b820191906000526020600020905b8154815290600101906020018083116141de57829003601f168201915b50505050508152602001600182018054600181600116156101000203166002900480601f01602080910402602001604051908101604052809291908181526020018280546001816001161561010002031660029004801561429d5780601f106142725761010080835404028352916020019161429d565b820191906000526020600020905b81548152906001019060200180831161428057829003601f168201915b50505050508152602001600282018054600181600116156101000203166002900480601f01602080910402602001604051908101604052809291908181526020018280546001816001161561010002031660029004801561433f5780601f106143145761010080835404028352916020019161433f565b820191906000526020600020905b81548152906001019060200180831161432257829003601f168201915b50505050508152602001600382018054600181600116156101000203166002900480601f0160208091040260200160405190810160405280929190818152602001828054600181600116156101000203166002900480156143e15780601f106143b6576101008083540402835291602001916143e1565b820191906000526020600020905b8154815290600101906020018083116143c457829003601f168201915b50505050508152602001600482018054600181600116156101000203166002900480601f0160208091040260200160405190810160405280929190818152602001828054600181600116156101000203166002900480156144835780601f1061445857610100808354040283529160200191614483565b820191906000526020600020905b81548152906001019060200180831161446657829003601f168201915b50505050508152602001600582018054600181600116156101000203166002900480601f0160208091040260200160405190810160405280929190818152602001828054600181600116156101000203166002900480156145255780601f106144fa57610100808354040283529160200191614525565b820191906000526020600020905b81548152906001019060200180831161450857829003601f168201915b505050505081526020016006820154815250509050898982602001518360400151846060015185608001518660a001518760c0015187878080601f016020809104026020016040519081016040528093929190818152602001838380828437600081840152601f19601f820116905080830192505050505050509650909192939495965085955084945083935082925081915097509750975097509750975097505092959891949750929550565b6145db614716565b61464d576040517f08c379a00000000000000000000000000000000000000000000000000000000081526004018080602001828103825260208152602001807f4f776e61626c653a2063616c6c6572206973206e6f7420746865206f776e657281525060200191505060405180910390fd5b600160149054906101000a900460ff166146b2576040517f08c379a000000000000000000000000000000000000000000000000000000000815260040180806020018281038252603d815260200180615af0603d913960400191505060405180910390fd5b600160009054906101000a900473ffffffffffffffffffffffffffffffffffffffff1673ffffffffffffffffffffffffffffffffffffffff16ff5b60008060009054906101000a900473ffffffffffffffffffffffffffffffffffffffff16905090565b60008060009054906101000a900473ffffffffffffffffffffffffffffffffffffffff1673ffffffffffffffffffffffffffffffffffffffff16614758615634565b73ffffffffffffffffffffffffffffffffffffffff1614905090565b600061477e614716565b6147f0576040517f08c379a00000000000000000000000000000000000000000000000000000000081526004018080602001828103825260208152602001807f4f776e61626c653a2063616c6c6572206973206e6f7420746865206f776e657281525060200191505060405180910390fd5b600160149054906101000a900460ff1615614856576040517f08c379a0000000000000000000000000000000000000000000000000000000008152600401808060200182810382526039815260200180615a7d6039913960400191505060405180910390fd5b60078383604051808383808284378083019250505092505050908152602001604051809103902060009054906101000a900473ffffffffffffffffffffffffffffffffffffffff16905092915050565b600080600160149054906101000a900460ff161561490f576040517f08c379a0000000000000000000000000000000000000000000000000000000008152600401808060200182810382526039815260200180615a7d6039913960400191505060405180910390fd5b600015153073ffffffffffffffffffffffffffffffffffffffff16633f7ec8b788886040518363ffffffff1660e01b815260040180806020018281038252848482818152602001925080828437600081840152601f19601f820116905080830192505050935050505060206040518083038186803b15801561499057600080fd5b505afa1580156149a4573d6000803e3d6000fd5b505050506040513d60208110156149ba57600080fd5b8101908080519060200190929190505050151514614a23576040517f08c379a000000000000000000000000000000000000000000000000000000000815260040180806020018281038252603a815260200180615a43603a913960400191505060405180910390fd5b60004390506000600190506040518060e0016040528089898080601f016020809104026020016040519081016040528093929190818152602001838380828437600081840152601f19601f82011690508083019250505050505050815260200187878080601f016020809104026020016040519081016040528093929190818152602001838380828437600081840152601f19601f8201169050808301925050505050505081526020018f8f8080601f016020809104026020016040519081016040528093929190818152602001838380828437600081840152601f19601f8201169050808301925050505050505081526020018d8d8080601f016020809104026020016040519081016040528093929190818152602001838380828437600081840152601f19601f8201169050808301925050505050505081526020018b8b8080601f016020809104026020016040519081016040528093929190818152602001838380828437600081840152601f19601f820116905080830192505050505050508152602001838152602001828152506006898960405180838380828437808301925050509250505090815260200160405180910390206000820151816000019080519060200190614bf892919061587d565b506020820151816001019080519060200190614c1592919061587d565b506040820151816002019080519060200190614c3292919061587d565b506060820151816003019080519060200190614c4f92919061587d565b506080820151816004019080519060200190614c6c92919061587d565b5060a0820151816005015560c082015181600601559050503360078989604051808383808284378083019250505092505050908152602001604051809103902060006101000a81548173ffffffffffffffffffffffffffffffffffffffff021916908373ffffffffffffffffffffffffffffffffffffffff16021790555060006008898990918060018154018082558091505090600182039060005260206000200160009091929390919293909192909192509190614d2c9291906158fd565b509050614d436001826155ea90919063ffffffff16565b90507fc9f8005fa31b29d0588dd0ef0743f26c3162a42037cf1227dd1d49041a098920818a8a8660405180858152602001806020018381526020018281038252858582818152602001925080828437600081840152601f19601f8201169050808301925050509550505050505060405180910390a18083945094505050509a509a98505050505050505050565b6060600160149054906101000a900460ff1615614e38576040517f08c379a0000000000000000000000000000000000000000000000000000000008152600401808060200182810382526039815260200180615a7d6039913960400191505060405180910390fd5b60088281548110614e4557fe5b906000526020600020018054600181600116156101000203166002900480601f016020809104026020016040519081016040528092919081815260200182805460018160011615610100020316600290048015614ee35780601f10614eb857610100808354040283529160200191614ee3565b820191906000526020600020905b815481529060010190602001808311614ec657829003601f168201915b50505050509050919050565b6000600160149054906101000a900460ff16905090565b600281805160208101820180518482526020830160208501208183528095505050505050600091509050806000018054600181600116156101000203166002900480601f016020809104026020016040519081016040528092919081815260200182805460018160011615610100020316600290048015614fc85780601f10614f9d57610100808354040283529160200191614fc8565b820191906000526020600020905b815481529060010190602001808311614fab57829003601f168201915b505050505090806001018054600181600116156101000203166002900480601f0160208091040260200160405190810160405280929190818152602001828054600181600116156101000203166002900480156150665780601f1061503b57610100808354040283529160200191615066565b820191906000526020600020905b81548152906001019060200180831161504957829003601f168201915b505050505090806002018054600181600116156101000203166002900480601f0160208091040260200160405190810160405280929190818152602001828054600181600116156101000203166002900480156151045780601f106150d957610100808354040283529160200191615104565b820191906000526020600020905b8154815290600101906020018083116150e757829003601f168201915b505050505090806003018054600181600116156101000203166002900480601f0160208091040260200160405190810160405280929190818152602001828054600181600116156101000203166002900480156151a25780601f10615177576101008083540402835291602001916151a2565b820191906000526020600020905b81548152906001019060200180831161518557829003601f168201915b505050505090806004018054600181600116156101000203166002900480601f0160208091040260200160405190810160405280929190818152602001828054600181600116156101000203166002900480156152405780601f1061521557610100808354040283529160200191615240565b820191906000526020600020905b81548152906001019060200180831161522357829003601f168201915b5050505050908060050154908060060154905087565b6007818051602081018201805184825260208301602085012081835280955050505050506000915054906101000a900473ffffffffffffffffffffffffffffffffffffffff1681565b60006152a9614716565b61531b576040517f08c379a00000000000000000000000000000000000000000000000000000000081526004018080602001828103825260208152602001807f4f776e61626c653a2063616c6c6572206973206e6f7420746865206f776e657281525060200191505060405180910390fd5b600160149054906101000a900460ff1615615381576040517f08c379a0000000000000000000000000000000000000000000000000000000008152600401808060200182810382526039815260200180615a7d6039913960400191505060405180910390fd5b600580549050905090565b615394614716565b615406576040517f08c379a00000000000000000000000000000000000000000000000000000000081526004018080602001828103825260208152602001807f4f776e61626c653a2063616c6c6572206973206e6f7420746865206f776e657281525060200191505060405180910390fd5b61540f8161563c565b50565b6060600160149054906101000a900460ff161561547a576040517f08c379a0000000000000000000000000000000000000000000000000000000008152600401808060200182810382526039815260200180615a7d6039913960400191505060405180910390fd5b6005828154811061548757fe5b906000526020600020018054600181600116156101000203166002900480601f0160208091040260200160405190810160405280929190818152602001828054600181600116156101000203166002900480156155255780601f106154fa57610100808354040283529160200191615525565b820191906000526020600020905b81548152906001019060200180831161550857829003601f168201915b50505050509050919050565b6008818154811061553e57fe5b906000526020600020016000915090508054600181600116156101000203166002900480601f0160208091040260200160405190810160405280929190818152602001828054600181600116156101000203166002900480156155e25780601f106155b7576101008083540402835291602001916155e2565b820191906000526020600020905b8154815290600101906020018083116155c557829003601f168201915b505050505081565b600061562c83836040518060400160405280601e81526020017f536166654d6174683a207375627472616374696f6e206f766572666c6f770000815250615780565b905092915050565b600033905090565b600073ffffffffffffffffffffffffffffffffffffffff168173ffffffffffffffffffffffffffffffffffffffff1614156156c2576040517f08c379a0000000000000000000000000000000000000000000000000000000008152600401808060200182810382526026815260200180615a1d6026913960400191505060405180910390fd5b8073ffffffffffffffffffffffffffffffffffffffff166000809054906101000a900473ffffffffffffffffffffffffffffffffffffffff1673ffffffffffffffffffffffffffffffffffffffff167f8be0079c531659141344cd1fd0a4f28419497f9722a3daafe3b4186f6b6457e060405160405180910390a3806000806101000a81548173ffffffffffffffffffffffffffffffffffffffff021916908373ffffffffffffffffffffffffffffffffffffffff16021790555050565b600083831115829061582d576040517f08c379a00000000000000000000000000000000000000000000000000000000081526004018080602001828103825283818151815260200191508051906020019080838360005b838110156157f25780820151818401526020810190506157d7565b50505050905090810190601f16801561581f5780820380516001836020036101000a031916815260200191505b509250505060405180910390fd5b5060008385039050809150509392505050565b6040518060e00160405280606081526020016060815260200160608152602001606081526020016060815260200160008152602001600081525090565b828054600181600116156101000203166002900490600052602060002090601f016020900481019282601f106158be57805160ff19168380011785556158ec565b828001600101855582156158ec579182015b828111156158eb5782518255916020019190600101906158d0565b5b5090506158f991906159f7565b5090565b828054600181600116156101000203166002900490600052602060002090601f016020900481019282601f1061593e57803560ff191683800117855561596c565b8280016001018555821561596c579182015b8281111561596b578235825591602001919060010190615950565b5b50905061597991906159f7565b5090565b6040518060e00160405280606081526020016060815260200160608152602001606081526020016060815260200160008152602001600081525090565b6040518060e00160405280606081526020016060815260200160608152602001606081526020016060815260200160608152602001600081525090565b615a1991905b80821115615a155760008160009055506001016159fd565b5090565b9056fe4f776e61626c653a206e6577206f776e657220697320746865207a65726f20616464726573734572726f723a2043616e6e6f742061646420612070726576696f75736c79207375626d69747465642053746f726167652049442f456e7472792e4369726375697420427265616b65723a20466f6f645072696e7420436f6e74726163742069732063757272656e746c792073746f707065642e4572726f723a2043616e6e6f742061646420612070726576696f75736c79207375626d697474656420486172766573742049442f456e7472792e4369726375697420427265616b65723a20466f6f645072696e7420436f6e7472616374206973206e6f742063757272656e746c792073746f707065642ea165627a7a723058205e73d8d39c69acb13cf3323697c6c94dd426e9092e467327d4d1579e038a566d0029",
  "source": "pragma solidity ^0.5.0;\n\n//OpenZeppelin Contract modules for math operations, simple authorization and access control mechanisms.\nimport \"openzeppelin-solidity/contracts/math/SafeMath.sol\";\nimport \"openzeppelin-solidity/contracts/ownership/Ownable.sol\";\n\n/** @title TheProduct - FoodPrint Produce Smart Contract. */\ncontract TheProductV2 is Ownable {\n    /*\n    NB:\n        - \"internal\" functions can only be called from the contract itself (or from derived contracts).\n\n        - v0.5 breaking changes list that:\n            - Explicit data location for all variables of struct, array or mapping types is now mandatory.\n            - This is also applied to function parameters and return variables.\n\n        Recall that when a function's visibility is external, only external contracts can call that function.\n        When such an external call happens, the data of that call is stored in calldata. Reading from calldata is cheap\n        as compared to reading from memory which uses more data.\n\n        External functions = calldata, public functions = memory\n        Explicit data location for all variables of struct, array or mapping types is now mandatory. This is also applied to function parameters and return variables.\n    */\n\n    // Include the SafeMath library inside this contract\n    using SafeMath for uint;\n\n    address payable contractOwner;\n    bool private stopped; // for use in circuit breaker\n\n    /*\n        Struct for a single produce harvest operation which corresponds to an entry in the FoodPrint Harvest Logbook. A struct in solidity is simply a loose bag of variables.\n    */\n    struct produceHarvestSubmission {\n        string harvestID;\n        string supplierproduceID;\n        string photoHash;\n        string geolocation;\n        string harvestTimeStamp;\n        //string harvestDetail; //growingCondtions, harvestTableName, harvestQuantity, harvestUser\n        uint256 BlockNumber;  // block number of Harvest submission\n        uint IsSet; // integer indication of whether Harvest Submission exists i.e. default is zero so if > 0 it exists\n    }\n\n    struct produceHarvestSubmissionDetail {\n        string harvestID;\n        string growingCondtions;\n        string harvestDescription;\n        string harvestTableName;\n        string harvestQuantity; //includes Harvest UoM\n        string harvestUser;\n        uint256 BlockNumber;  // block number of Harvest submission\n    }\n\n    /*\n        State variable that stores a `produceHarvestSubmission` struct for each Harvest entry. The key is a string i.e. harvest_logid e.g. 93716116-4207-4b1e-a891-01731642fd3a and the value is a produceHarvestSubmission struct.\n        Recall that a mapping is essentially a key-value store for storing and looking up data, it allows random access in a single step.\n    */\n    mapping(string => produceHarvestSubmission) public harvestMap;\n\n    /*\n        State variable that stores a `produceHarvestSubmissionDetail` struct for each Harvest entry.\n    */\n    mapping(string => produceHarvestSubmissionDetail) public harvestDetailMap;\n\n    /*\n       State variable that stores the ETH wallet address corresponding to each harvest entry submission i.e. AuditTrail purposes.\n    */\n    mapping(string => address) public harvestAddressMap;\n\n    /*\n        A dynamically-sized string array containing Harvest Log IDs. This will be used for length tracking.\n        Array of harvestLogIDs made public because of length method.\n    */\n    string[] public harvestLogIDs;\n\n    /** \n     * @dev Fired on submission of a Harvest entry.\n     */\n    event registeredHarvestEvent (\n        uint _harvestLogIDIndex,\n        string _harvestID,\n        uint _harvestSubmissionBlockNumber\n    );\n\n     /** \n     * @dev Fired on submission of a Harvest entry.\n     */\n    event registeredHarvestDetailEvent (\n        string _harvestID,\n        uint _harvestSubmissionBlockNumber\n    );\n\n\n    //Creating the reference data for storage of produce\n    /*\n        Struct for a single produce storage operation (i.e. handover from farmer to market) which corresponds to an entry in the  FoodPrint Storage Logbook (Handover Logbook).\n        Each storage operation has an associated harvest operation.\n    */\n    struct produceStorageSubmission {\n        string storageID;  \n        string harvestID;  //this should be the same ID as the corresponding produceHarvestSubmission ID\n        string otherID; //includes supplierproduceID and marketID\n        //string marketID;\n        string storageTimeStamp;\n        string storageDetail; //storageDescription, storageTableName, storageUser and storageQuantity which includes storage UoM\n        uint256 BlockNumber; //block number of storage submission. previously hash\n        uint IsSet; // integer indication of whether storage Submission exists i.e. default is zero so if > 0 it exists\n    }\n\n    /*\n        State variable that stores a `produceStorageSubmission` struct for each Storage entry.\n    */\n    mapping(string => produceStorageSubmission) public storageMap;\n\n    /*\n        State variable that stores a `produceStorageSubmissionDetail` struct for each Storage entry.\n    */\n   // mapping(string => produceStorageSubmissionDetail) public storageDetailMap;\n\n    /*\n       State variable that stores the ETH wallet address corresponding to each harvest entry submission i.e. for AuditTrail purposes.\n    */\n    mapping(string => address) public storageAddressMap;\n\n    /*\n        A dynamically-sized string array containing Storage Log IDs. This will be used for length tracking.\n    */\n    string[] public storageLogIDs;\n\n    /** \n     * @dev Fired on submission of a Storage entry.\n     */\n    event registeredStorageEvent (\n        uint _storageLogIDIndex,\n        string _storageID,\n        uint _storageSubmissionBlockNumber\n    );\n\n   /**\n     * @dev Constructor.\n     */\n    constructor () public {\n        contractOwner = msg.sender;\n        stopped = false;\n    }\n\n    /*\n        @dev Circuit breaker switch\n    */\n    function toggleContractActive() onlyOwner public returns (bool) {\n        stopped = !stopped;\n        return stopped;\n    }\n\n    /*\n        @dev Circuit breaker modifier. Throws if contract is stopped.\n    */\n    modifier stopInEmergency() {\n        require(!stopped, \"Circuit Breaker: FoodPrint Contract is currently stopped.\");\n        _;\n    }\n\n    /*\n        @dev Circuit breaker modifier. Throws if contract is not stopped.\n    */\n    modifier onlyInEmergency() {\n        require(stopped, \"Circuit Breaker: FoodPrint Contract is not currently stopped.\");\n        _;\n    }\n\n    /**\n     * @dev Register a Harvest submission - it should add the Harvest submission to the array of Harvest submissions i.e. harvestMap.\n     * @param _supplierproduceID Unique ID (per supplier-produce combination) e.g. OZCF_Apples\n     * @param _photoHash Hash of photo BLOB stored in relational database e.g. abc01...\n     * @param _geolocation Geographical location of where the produce is harvested e.g. -33.961059,18.4110411\n     * @param _harvestTimeStamp Date and time at which produce is harvested e.g. 20190620 16:10:55\n     * @param _harvestID Unique ID for supplier-produce and harvest combination e.g. 1b26557b-20f3-4ea2-81d2-e54c5a9a40f7\n     */\n    function registerHarvestSubmission(string calldata _supplierproduceID, \n                                       string calldata _photoHash,  string calldata _geolocation, \n                                       string calldata _harvestTimeStamp, \n                                       string calldata _harvestID)\n                                        stopInEmergency external returns(uint, uint) {\n        /*\n            Recall that Public functions need to write all of the arguments to memory because public functions\n            may be called internally, which is an entirely different process from external calls. Thus, when the\n            compiler generates the code for an internal function, that function expects its arguments to be located in memory.\n        */\n\n        require(this.checkHarvestSubmission(_harvestID) == false, \"Error: Cannot add a previously submitted Harvest ID/Entry.\");\n\n        uint256 harvestSubmissionBlockNumber = block.number;\n        // string harvestSubmissionBlockHash = block.blockhash(harvestSubmissionBlockNumber - 1); // hash of the given block - only works for the 256 most recent blocks excluding current\n\n        uint256 IsSet = 1;\n\n        // Creates mapping between a harvestID and HarvestS ubmission struct and save in storage.\n        harvestMap[_harvestID] = produceHarvestSubmission(_harvestID, _supplierproduceID,  _photoHash, _geolocation, \n                                                           _harvestTimeStamp, harvestSubmissionBlockNumber, IsSet);\n\n         // Creates mapping between a Harvest ID and Harvest Entry submitter address then save in storage.\n        harvestAddressMap[_harvestID] = msg.sender;\n\n        //add the Harvest ID to the array for length tracking\n        uint harvestLogIDIndex = harvestLogIDs.push(_harvestID);\n        harvestLogIDIndex = harvestLogIDIndex.sub(1); //subtract 1 if you wish to access using array index\n\n        // trigger event for Harvest registration\n        emit registeredHarvestEvent(harvestLogIDIndex, _harvestID, harvestSubmissionBlockNumber);\n\n        return (harvestLogIDIndex, harvestSubmissionBlockNumber);\n    }\n\n    /**\n     * @dev Register a Harvest submission - it should add the Harvest submission to the array of Harvest submissions i.e. harvestMap.\n     * @param _growingCondtions Claims related to growing conditions e.g. Organic vs Conventional i.e. harvest_description_json e.g. 'organic,pesticide free'\n     * @param _harvestDescription Harvest specific comment e.g. Baby Marrows with soft skin and buttery flesh.\n     * @param _harvestTableName Table name for harvest entry in relational database e.g. foodprint_harvest\n     * @param _harvestQuantity Quantity of harvested produce e.g. 10, includes  unit of measure e.g. bunches/KGs/none\n     * @param _harvestUser User who logged harvest e.g. useremail@xyz.com\n     * @param _harvestID Unique ID for supplier-produce and harvest combination e.g. 1b26557b-20f3-4ea2-81d2-e54c5a9a40f7\n     */\n    function registerHarvestSubmissionDetails(string calldata _growingCondtions, string calldata _harvestDescription,\n                                       string calldata _harvestTableName, string calldata _harvestQuantity, string calldata _harvestUser, \n                                        string calldata _harvestID)\n                                        stopInEmergency external returns(uint) {\n        \n        uint256 harvestSubmissionBlockNumber = block.number;\n        // string harvestSubmissionBlockHash = block.blockhash(harvestSubmissionBlockNumber - 1); // hash of the given block - only works for the 256 most recent blocks excluding current\n\n        // Creates mapping between a harvestID and HarvestS ubmission struct and save in storage.\n        harvestDetailMap[_harvestID] = produceHarvestSubmissionDetail(_harvestID, _growingCondtions, _harvestDescription, _harvestTableName, \n                                        _harvestQuantity,  _harvestUser, harvestSubmissionBlockNumber);\n        \n         // trigger event for Harvest registration\n        emit registeredHarvestDetailEvent(_harvestID, harvestSubmissionBlockNumber);\n\n        return (harvestSubmissionBlockNumber);\n    }\n\n    /**\n     * @dev Returns the number of Harvest Submissions tracked on Blockchain.\n     * Can only be called by the current owner.\n     */\n    function getHarvestSubmissionsCount() external onlyOwner stopInEmergency view returns(uint) {\n        return harvestLogIDs.length;\n    }\n\n    /**\n     * @dev Returns an address used for a submission.\n     * @param harvest_id Harvest ID which is key in the harvestMap map\n     * Can only be called by the current owner.\n     */\n    function getHarvestSubmitterAddress(string calldata harvest_id) external onlyOwner stopInEmergency view returns(address) {\n       return harvestAddressMap[harvest_id];\n    }\n\n    /**\n     * @dev Returns a harvest ID from harvestLogIDs array using array index.\n     * @param arrayIndex Array index of harvestLogIDs\n     */\n    function getHarvestLogIDByIndex(uint256 arrayIndex) external stopInEmergency view returns(string memory) {\n       return harvestLogIDs[arrayIndex];\n    }\n\n    /**\n     * @dev Returns the harvest submission if the Harvest ID  exists in the harvestMap.\n     * @param harvest_id Harvest ID which is key in the harvestMap.\n     * Data location must be \"memory\" for return parameter in function\n     */\n    function getHarvestSubmission(string calldata harvest_id) external stopInEmergency view returns (string memory, string memory,  \n                                                                                                    string memory, uint, uint) {\n        \n        //If you have more than eight return values,  error:Stack too deep, try removing local variables. \n        //Rather load struct into memory then return instead of returning directly against map e.g. harvestMap[harvest_id].supplierproduceID\n        produceHarvestSubmission memory harvestEntry = harvestMap[harvest_id];\n\n        return (harvest_id, harvestEntry.supplierproduceID, harvestEntry.harvestTimeStamp, \n               harvestEntry.BlockNumber, harvestEntry.IsSet);\n    }   \n\n    /**\n     * @dev Returns the harvest submission details if the Harvest ID  exists in the harvestDetailMap.\n     * @param harvest_id Harvest ID which is key in the harvestMap.\n     */\n    function getHarvestSubmissionDetail(string calldata harvest_id) external stopInEmergency view returns (string memory, string memory,  \n                                                                                                    string memory, string memory, string memory, string memory, uint) {\n        \n        produceHarvestSubmissionDetail memory harvestEntryDetail = harvestDetailMap[harvest_id];\n\n        return (harvest_id, harvestEntryDetail.growingCondtions, harvestEntryDetail.harvestDescription, \n               harvestEntryDetail.harvestTableName, harvestEntryDetail.harvestQuantity, harvestEntryDetail.harvestUser, harvestEntryDetail.BlockNumber);\n    }  \n\n    /**\n     * @dev Confirm whether the Harvest ID exists in the harvest submissions.\n     * @param harvest_id Harvest ID which is key in the harvestMap map\n     */\n    function checkHarvestSubmission(string memory harvest_id) public stopInEmergency view returns (bool) {\n        // check whether the harvest_id is among the list of known harvest ID's\n        uint onChainIsSet = harvestMap[harvest_id].IsSet;\n        if (onChainIsSet > 0) {\n            // if yes, return true\n            return true;\n          }\n        // otherwise return false\n        return false;\n    }\n\n    /**\n     * @dev Register a Storage submission - it should add the Storage submission to the array of Storage submissions i.e. storageMap.\n     * @param _otherID Other IDs (e.g. supplier-produce and marketID) e.g. OZCF_Apples, OZCFM\n     * @param _storageTimeStamp Date and time at which produce is harvested e.g. 20190620 16:10:55\n     * @param _storageDetail Combination of storageDescription, storageTableName, storageUser and storageQuantity which includes storage UoM\n     * @param _storageID Unique ID for storage entry e.g. 1b26557b-20f3-4ea2-81d2-e54c5a9a50be\n     * @param _harvestID Unique ID for harvest entry e.g. 1b26557b-20f3-4ea2-81d2-e54c5a9a40f7\n     */\n    function registerStorageSubmission (string calldata _otherID, string calldata _storageTimeStamp,  string calldata _storageDetail, string calldata _storageID, string calldata _harvestID)\n                                        stopInEmergency external returns(uint, uint) {\n        require(this.checkStorageSubmission(_storageID) == false, \"Error: Cannot add a previously submitted Storage ID/Entry.\");\n\n        uint256 storageSubmissionBlockNumber = block.number;\n        // string harvestSubmissionBlockHash = block.blockhash(harvestSubmissionBlockNumber - 1); // hash of the given block - only works for the 256 most recent blocks excluding current\n\n        uint256 IsSet = 1;\n\n        // Creates mapping between a harvestID and HarvestS ubmission struct and save in storage.\n        storageMap[_storageID] = produceStorageSubmission(_storageID, _harvestID, _otherID, _storageTimeStamp, _storageDetail, storageSubmissionBlockNumber,  IsSet);\n\n         // Creates mapping between a Storage ID and Storage/Handover submitter address then save in storage.\n        storageAddressMap[_storageID] = msg.sender;\n\n        //add the Storage ID to the array for length tracking\n        uint storageLogIDIndex = storageLogIDs.push(_storageID);\n        storageLogIDIndex = storageLogIDIndex.sub(1); //subtract 1 if you wish to access using array index\n\n        // trigger event for storage/handover registration\n        emit registeredStorageEvent(storageLogIDIndex, _storageID, storageSubmissionBlockNumber);\n\n        return (storageLogIDIndex, storageSubmissionBlockNumber);\n    }\n\n    /**\n     * @dev Returns the number of Storage Submissions tracked on Blockchain.\n     * Can only be called by the current owner.\n     */\n    function getStorageSubmissionsCount() external onlyOwner stopInEmergency view returns(uint) {\n        return storageLogIDs.length;\n    }\n\n    /**\n     * @dev Returns an address used for a submission.\n     * @param storage_id Storage ID which is key in the storageMap \n     * Can only be called by the current owner.\n     */\n    function getStorageSubmitterAddress(string calldata storage_id) external onlyOwner stopInEmergency view returns(address) {\n       return storageAddressMap[storage_id];\n    }\n\n    /**\n     * @dev Returns a Storage ID from storageLogIDs array using array index.\n     * @param arrayIndex Array index of storageLogIDs\n     */\n    function getStorageLogIDByIndex(uint256 arrayIndex) external stopInEmergency view returns(string memory) {\n       return storageLogIDs[arrayIndex];\n    }\n\n    /**\n     * @dev Returns the Storage submission if the Storage ID  exists in the storageMap.\n     * @param storage_id Storage ID which is key in the storageMap.\n     */\n    function getStorageSubmission(string calldata storage_id) external stopInEmergency view returns (string memory, string memory, string memory, string memory, uint, uint) {\n        produceStorageSubmission memory storageEntry = storageMap[storage_id];\n\n        return (storageEntry.storageID, storageEntry.harvestID, storageEntry.otherID, storageEntry.storageDetail, storageEntry.BlockNumber, storageEntry.IsSet);\n    }   \n\n    /**\n     * @dev Confirm whether the Storage ID exists in the storage submissions.\n     * @param storage_id Storage ID which is key in the storageMap\n     */\n    function checkStorageSubmission(string memory storage_id) public stopInEmergency view returns (bool) {\n        // check whether the storage_id is among the list of known Storage ID's\n        uint onChainIsSet = storageMap[storage_id].IsSet;\n        if (onChainIsSet > 0) {\n            // if yes, return true\n            return true;\n          }\n        // otherwise return false\n        return false;\n    }\n\n    /**\n     * @dev Confirm whether the contract is stopped or not.\n     */\n    function checkContractIsRunning() public view returns (bool) {\n        return stopped;\n    }\n\n    /**\n     * @dev This is a fallback function which gets executed if a transaction with invalid data is sent to the contract or\n     *   just ether without data. We revert the send so that no-one accidentally loses money when using the contract.\n     */\n    function() external {\n        revert();\n    }\n\n    /**\n     * @dev Remove the storage and code from the state.\n     * Can only be called by the current owner.\n     */\n    function destroy() public onlyOwner onlyInEmergency {\n        // cast owner which is address to address payable\n        //contractOwner = address(uint160(owner));\n        selfdestruct(contractOwner);\n    }\n}",
  "sourcePath": "/Users/juliankanjere/dev/Blockchain/FoodPrint/contracts/productv2.sol",
  "compiler": {
    "name": "solc",
    "version": "0.5.8+commit.23d335f2.Emscripten.clang"
  },
  "schemaVersion": "3.0.11",
  "updatedAt": "2020-08-25T23:30:57.673Z",
  "devdoc": {
    "methods": {
      "checkContractIsRunning()": {
        "details": "Confirm whether the contract is stopped or not."
      },
      "checkHarvestSubmission(string)": {
        "details": "Confirm whether the Harvest ID exists in the harvest submissions.",
        "params": {
          "harvest_id": "Harvest ID which is key in the harvestMap map"
        }
      },
      "checkStorageSubmission(string)": {
        "details": "Confirm whether the Storage ID exists in the storage submissions.",
        "params": {
          "storage_id": "Storage ID which is key in the storageMap"
        }
      },
      "constructor": {
        "details": "Constructor."
      },
      "destroy()": {
        "details": "Remove the storage and code from the state. Can only be called by the current owner."
      },
      "getHarvestLogIDByIndex(uint256)": {
        "details": "Returns a harvest ID from harvestLogIDs array using array index.",
        "params": {
          "arrayIndex": "Array index of harvestLogIDs"
        }
      },
      "getHarvestSubmission(string)": {
        "details": "Returns the harvest submission if the Harvest ID  exists in the harvestMap.",
        "params": {
          "harvest_id": "Harvest ID which is key in the harvestMap. Data location must be \"memory\" for return parameter in function"
        }
      },
      "getHarvestSubmissionDetail(string)": {
        "details": "Returns the harvest submission details if the Harvest ID  exists in the harvestDetailMap.",
        "params": {
          "harvest_id": "Harvest ID which is key in the harvestMap."
        }
      },
      "getHarvestSubmissionsCount()": {
        "details": "Returns the number of Harvest Submissions tracked on Blockchain. Can only be called by the current owner."
      },
      "getHarvestSubmitterAddress(string)": {
        "details": "Returns an address used for a submission.",
        "params": {
          "harvest_id": "Harvest ID which is key in the harvestMap map Can only be called by the current owner."
        }
      },
      "getStorageLogIDByIndex(uint256)": {
        "details": "Returns a Storage ID from storageLogIDs array using array index.",
        "params": {
          "arrayIndex": "Array index of storageLogIDs"
        }
      },
      "getStorageSubmission(string)": {
        "details": "Returns the Storage submission if the Storage ID  exists in the storageMap.",
        "params": {
          "storage_id": "Storage ID which is key in the storageMap."
        }
      },
      "getStorageSubmissionsCount()": {
        "details": "Returns the number of Storage Submissions tracked on Blockchain. Can only be called by the current owner."
      },
      "getStorageSubmitterAddress(string)": {
        "details": "Returns an address used for a submission.",
        "params": {
          "storage_id": "Storage ID which is key in the storageMap  Can only be called by the current owner."
        }
      },
      "isOwner()": {
        "details": "Returns true if the caller is the current owner."
      },
      "owner()": {
        "details": "Returns the address of the current owner."
      },
      "registerHarvestSubmission(string,string,string,string,string)": {
        "details": "Register a Harvest submission - it should add the Harvest submission to the array of Harvest submissions i.e. harvestMap.",
        "params": {
          "_geolocation": "Geographical location of where the produce is harvested e.g. -33.961059,18.4110411",
          "_harvestID": "Unique ID for supplier-produce and harvest combination e.g. 1b26557b-20f3-4ea2-81d2-e54c5a9a40f7",
          "_harvestTimeStamp": "Date and time at which produce is harvested e.g. 20190620 16:10:55",
          "_photoHash": "Hash of photo BLOB stored in relational database e.g. abc01...",
          "_supplierproduceID": "Unique ID (per supplier-produce combination) e.g. OZCF_Apples"
        }
      },
      "registerHarvestSubmissionDetails(string,string,string,string,string,string)": {
        "details": "Register a Harvest submission - it should add the Harvest submission to the array of Harvest submissions i.e. harvestMap.",
        "params": {
          "_growingCondtions": "Claims related to growing conditions e.g. Organic vs Conventional i.e. harvest_description_json e.g. 'organic,pesticide free'",
          "_harvestDescription": "Harvest specific comment e.g. Baby Marrows with soft skin and buttery flesh.",
          "_harvestID": "Unique ID for supplier-produce and harvest combination e.g. 1b26557b-20f3-4ea2-81d2-e54c5a9a40f7",
          "_harvestQuantity": "Quantity of harvested produce e.g. 10, includes  unit of measure e.g. bunches/KGs/none",
          "_harvestTableName": "Table name for harvest entry in relational database e.g. foodprint_harvest",
          "_harvestUser": "User who logged harvest e.g. useremail@xyz.com"
        }
      },
      "registerStorageSubmission(string,string,string,string,string)": {
        "details": "Register a Storage submission - it should add the Storage submission to the array of Storage submissions i.e. storageMap.",
        "params": {
          "_harvestID": "Unique ID for harvest entry e.g. 1b26557b-20f3-4ea2-81d2-e54c5a9a40f7",
          "_otherID": "Other IDs (e.g. supplier-produce and marketID) e.g. OZCF_Apples, OZCFM",
          "_storageDetail": "Combination of storageDescription, storageTableName, storageUser and storageQuantity which includes storage UoM",
          "_storageID": "Unique ID for storage entry e.g. 1b26557b-20f3-4ea2-81d2-e54c5a9a50be",
          "_storageTimeStamp": "Date and time at which produce is harvested e.g. 20190620 16:10:55"
        }
      },
      "renounceOwnership()": {
        "details": "Leaves the contract without owner. It will not be possible to call `onlyOwner` functions anymore. Can only be called by the current owner.     * NOTE: Renouncing ownership will leave the contract without an owner, thereby removing any functionality that is only available to the owner."
      },
      "transferOwnership(address)": {
        "details": "Transfers ownership of the contract to a new account (`newOwner`). Can only be called by the current owner."
      }
    },
    "title": "TheProduct - FoodPrint Produce Smart Contract. "
  },
  "userdoc": {
    "methods": {}
  }
}